{
  "contractName": "Shop",
  "abi": [
    {
      "inputs": [],
      "stateMutability": "nonpayable",
      "type": "constructor"
    },
    {
      "anonymous": false,
      "inputs": [
        {
          "indexed": false,
          "internalType": "uint256",
          "name": "productId",
          "type": "uint256"
        },
        {
          "indexed": false,
          "internalType": "address",
          "name": "buyer",
          "type": "address"
        },
        {
          "indexed": false,
          "internalType": "uint256",
          "name": "amount",
          "type": "uint256"
        }
      ],
      "name": "ProductPurchased",
      "type": "event"
    },
    {
      "inputs": [
        {
          "internalType": "uint256",
          "name": "",
          "type": "uint256"
        }
      ],
      "name": "buyers",
      "outputs": [
        {
          "internalType": "address",
          "name": "",
          "type": "address"
        }
      ],
      "stateMutability": "view",
      "type": "function",
      "constant": true
    },
    {
      "inputs": [],
      "name": "owner",
      "outputs": [
        {
          "internalType": "address",
          "name": "",
          "type": "address"
        }
      ],
      "stateMutability": "view",
      "type": "function",
      "constant": true
    },
    {
      "inputs": [
        {
          "internalType": "uint256",
          "name": "productId",
          "type": "uint256"
        }
      ],
      "name": "buyProduct",
      "outputs": [],
      "stateMutability": "payable",
      "type": "function",
      "payable": true
    },
    {
      "inputs": [],
      "name": "withdraw",
      "outputs": [],
      "stateMutability": "nonpayable",
      "type": "function"
    }
  ],
  "bytecode": "0x608060405234801561001057600080fd5b50336000806101000a81548173ffffffffffffffffffffffffffffffffffffffff021916908373ffffffffffffffffffffffffffffffffffffffff160217905550610630806100606000396000f3fe60806040526004361061003f5760003560e01c80633ccfd60b146100445780638642269e1461005b5780638da5cb5b14610077578063f2aa8218146100a2575b600080fd5b34801561005057600080fd5b506100596100df565b005b610075600480360381019061007091906103b7565b6101d6565b005b34801561008357600080fd5b5061008c61034b565b60405161009991906104e4565b60405180910390f35b3480156100ae57600080fd5b506100c960048036038101906100c491906103b7565b61036f565b6040516100d691906104e4565b60405180910390f35b60008054906101000a900473ffffffffffffffffffffffffffffffffffffffff1673ffffffffffffffffffffffffffffffffffffffff163373ffffffffffffffffffffffffffffffffffffffff161461016d576040517f08c379a00000000000000000000000000000000000000000000000000000000081526004016101649061053f565b60405180910390fd5b60008054906101000a900473ffffffffffffffffffffffffffffffffffffffff1673ffffffffffffffffffffffffffffffffffffffff166108fc479081150290604051600060405180830381858888f193505050501580156101d3573d6000803e3d6000fd5b50565b60003411610219576040517f08c379a0000000000000000000000000000000000000000000000000000000008152600401610210906104ff565b60405180910390fd5b600073ffffffffffffffffffffffffffffffffffffffff166001600083815260200190815260200160002060009054906101000a900473ffffffffffffffffffffffffffffffffffffffff1673ffffffffffffffffffffffffffffffffffffffff16146102bb576040517f08c379a00000000000000000000000000000000000000000000000000000000081526004016102b29061051f565b60405180910390fd5b336001600083815260200190815260200160002060006101000a81548173ffffffffffffffffffffffffffffffffffffffff021916908373ffffffffffffffffffffffffffffffffffffffff1602179055507fa530f889d7f1bd9a73028e48944ca013ab2c6624a31e3fa26f923f4bb719abd58133346040516103409392919061055f565b60405180910390a150565b60008054906101000a900473ffffffffffffffffffffffffffffffffffffffff1681565b60016020528060005260406000206000915054906101000a900473ffffffffffffffffffffffffffffffffffffffff1681565b6000813590506103b1816105e3565b92915050565b6000602082840312156103c957600080fd5b60006103d7848285016103a2565b91505092915050565b6103e9816105a7565b82525050565b60006103fc601e83610596565b91507f5061796d656e74206d7573742062652067726561746572207468616e203000006000830152602082019050919050565b600061043c601983610596565b91507f50726f6475637420616c726561647920707572636861736564000000000000006000830152602082019050919050565b600061047c602283610596565b91507f4f6e6c79206f776e65722063616e20706572666f726d2074686973206163746960008301527f6f6e0000000000000000000000000000000000000000000000000000000000006020830152604082019050919050565b6104de816105d9565b82525050565b60006020820190506104f960008301846103e0565b92915050565b60006020820190508181036000830152610518816103ef565b9050919050565b600060208201905081810360008301526105388161042f565b9050919050565b600060208201905081810360008301526105588161046f565b9050919050565b600060608201905061057460008301866104d5565b61058160208301856103e0565b61058e60408301846104d5565b949350505050565b600082825260208201905092915050565b60006105b2826105b9565b9050919050565b600073ffffffffffffffffffffffffffffffffffffffff82169050919050565b6000819050919050565b6105ec816105d9565b81146105f757600080fd5b5056fea26469706673582212207f69db07e8d2f602d7d2e9007c09323c371b2a413f264c4ce3171d2c1f63332c64736f6c63430008000033",
  "immutableReferences": {},
  "source": "// SPDX-License-Identifier: MIT\npragma solidity ^0.8.0;\n\ncontract Shop {\n    address public owner;\n    mapping(uint => address) public buyers;\n\n    event ProductPurchased(uint productId, address buyer, uint amount);\n\n    modifier onlyOwner() {\n        require(msg.sender == owner, \"Only owner can perform this action\");\n        _;\n    }\n\n    constructor() {\n        owner = msg.sender;\n    }\n\n    function buyProduct(uint productId) public payable {\n        require(msg.value > 0, \"Payment must be greater than 0\");\n        require(buyers[productId] == address(0), \"Product already purchased\");\n\n        buyers[productId] = msg.sender;\n        emit ProductPurchased(productId, msg.sender, msg.value);\n    }\n\n    function withdraw() public onlyOwner {\n        payable(owner).transfer(address(this).balance);\n    }\n}\n",
  "sourcePath": "C:\\Users\\Hanna\\workspace Dropbox\\Hanna Borodina\\\\Downloads\\simple-eth-shop\\contracts\\Shop.sol",
  "compiler": {
    "name": "solc",
    "version": "0.8.0+commit.c7dfd78e.Emscripten.clang"
  },
  "schemaVersion": "3.4.16",
  "updatedAt": "2025-02-03T06:34:37.205Z",
  "networkType": "ethereum",
  "devdoc": {
    "kind": "dev",
    "methods": {},
    "version": 1
  },
  "userdoc": {
    "kind": "user",
    "methods": {},
    "version": 1
  }
}